{
  "contractName": "CourseMarketplace",
  "abi": [
    {
      "inputs": [],
      "stateMutability": "nonpayable",
      "type": "constructor"
    },
    {
      "inputs": [],
      "name": "CourseHasOwner",
      "type": "error"
    },
    {
      "inputs": [],
      "name": "CourseIsNotCreated",
      "type": "error"
    },
    {
      "inputs": [],
      "name": "InvalidState",
      "type": "error"
    },
    {
      "inputs": [],
      "name": "OnlyOwner",
      "type": "error"
    },
    {
      "inputs": [],
      "name": "SenderIsNotCourseOwner",
      "type": "error"
    },
    {
      "inputs": [],
      "name": "isStopped",
      "outputs": [
        {
          "internalType": "bool",
          "name": "",
          "type": "bool"
        }
      ],
      "stateMutability": "view",
      "type": "function",
      "constant": true
    },
    {
      "inputs": [],
      "name": "stopContract",
      "outputs": [],
      "stateMutability": "nonpayable",
      "type": "function"
    },
    {
      "inputs": [],
      "name": "resumeContract",
      "outputs": [],
      "stateMutability": "nonpayable",
      "type": "function"
    },
    {
      "inputs": [
        {
          "internalType": "bytes16",
          "name": "courseId",
          "type": "bytes16"
        },
        {
          "internalType": "bytes32",
          "name": "proof",
          "type": "bytes32"
        }
      ],
      "name": "purchaseCourse",
      "outputs": [],
      "stateMutability": "payable",
      "type": "function",
      "payable": true
    },
    {
      "inputs": [
        {
          "internalType": "bytes32",
          "name": "courseHash",
          "type": "bytes32"
        }
      ],
      "name": "repurchaseCourse",
      "outputs": [],
      "stateMutability": "payable",
      "type": "function",
      "payable": true
    },
    {
      "inputs": [
        {
          "internalType": "bytes32",
          "name": "courseHash",
          "type": "bytes32"
        }
      ],
      "name": "activateCourse",
      "outputs": [],
      "stateMutability": "nonpayable",
      "type": "function"
    },
    {
      "inputs": [
        {
          "internalType": "bytes32",
          "name": "courseHash",
          "type": "bytes32"
        }
      ],
      "name": "deactivateCourse",
      "outputs": [],
      "stateMutability": "nonpayable",
      "type": "function"
    },
    {
      "inputs": [
        {
          "internalType": "address",
          "name": "newOwner",
          "type": "address"
        }
      ],
      "name": "transferOwnership",
      "outputs": [],
      "stateMutability": "nonpayable",
      "type": "function"
    },
    {
      "inputs": [],
      "name": "getCourseCount",
      "outputs": [
        {
          "internalType": "uint256",
          "name": "",
          "type": "uint256"
        }
      ],
      "stateMutability": "view",
      "type": "function",
      "constant": true
    },
    {
      "inputs": [
        {
          "internalType": "uint256",
          "name": "index",
          "type": "uint256"
        }
      ],
      "name": "getCourseHashAtIndex",
      "outputs": [
        {
          "internalType": "bytes32",
          "name": "",
          "type": "bytes32"
        }
      ],
      "stateMutability": "view",
      "type": "function",
      "constant": true
    },
    {
      "inputs": [
        {
          "internalType": "bytes32",
          "name": "courseHash",
          "type": "bytes32"
        }
      ],
      "name": "getCourseByHash",
      "outputs": [
        {
          "components": [
            {
              "internalType": "uint256",
              "name": "id",
              "type": "uint256"
            },
            {
              "internalType": "uint256",
              "name": "price",
              "type": "uint256"
            },
            {
              "internalType": "bytes32",
              "name": "proof",
              "type": "bytes32"
            },
            {
              "internalType": "address",
              "name": "owner",
              "type": "address"
            },
            {
              "internalType": "enum CourseMarketplace.State",
              "name": "state",
              "type": "uint8"
            }
          ],
          "internalType": "struct CourseMarketplace.Course",
          "name": "",
          "type": "tuple"
        }
      ],
      "stateMutability": "view",
      "type": "function",
      "constant": true
    },
    {
      "inputs": [],
      "name": "getContractOwner",
      "outputs": [
        {
          "internalType": "address",
          "name": "",
          "type": "address"
        }
      ],
      "stateMutability": "view",
      "type": "function",
      "constant": true
    }
  ],
  "bytecode": "0x608060405260008060006101000a81548160ff02191690831515021790555034801561002a57600080fd5b5061003a3361003f60201b60201c565b610083565b80600460006101000a81548173ffffffffffffffffffffffffffffffffffffffff021916908373ffffffffffffffffffffffffffffffffffffffff16021790555050565b611360806100926000396000f3fe6080604052600436106100a75760003560e01c80636d11290b116100645780636d11290b1461019b578063935d7e6d146101d857806396cfda0614610201578063c4bc5da51461022c578063d76821cb14610243578063f2fde38b1461025f576100a7565b806312253a6c146100ac57806339262572146100c35780633f683b6a146100ec578063442890d5146101175780636136e1eb1461014257806362e4e6ac1461015e575b600080fd5b3480156100b857600080fd5b506100c1610288565b005b3480156100cf57600080fd5b506100ea60048036038101906100e59190610dcd565b610310565b005b3480156100f857600080fd5b5061010161048a565b60405161010e9190610e15565b60405180910390f35b34801561012357600080fd5b5061012c61049b565b6040516101399190610e71565b60405180910390f35b61015c60048036038101906101579190610dcd565b6104c5565b005b34801561016a57600080fd5b5061018560048036038101906101809190610dcd565b610602565b6040516101929190610fa2565b60405180910390f35b3480156101a757600080fd5b506101c260048036038101906101bd9190610fe9565b6106de565b6040516101cf9190611025565b60405180910390f35b3480156101e457600080fd5b506101ff60048036038101906101fa9190610dcd565b6106fb565b005b34801561020d57600080fd5b50610216610954565b604051610223919061104f565b60405180910390f35b34801561023857600080fd5b5061024161095e565b005b61025d600480360381019061025891906110c2565b6109e6565b005b34801561026b57600080fd5b506102866004803603810190610281919061112e565b610b9f565b005b61029061049b565b73ffffffffffffffffffffffffffffffffffffffff163373ffffffffffffffffffffffffffffffffffffffff16146102f4576040517f5fc483c500000000000000000000000000000000000000000000000000000000815260040160405180910390fd5b60016000806101000a81548160ff021916908315150217905550565b61031861049b565b73ffffffffffffffffffffffffffffffffffffffff163373ffffffffffffffffffffffffffffffffffffffff161461037c576040517f5fc483c500000000000000000000000000000000000000000000000000000000815260040160405180910390fd5b60008054906101000a900460ff161561039457600080fd5b61039d81610c17565b6103d3576040517f4db0c48300000000000000000000000000000000000000000000000000000000815260040160405180910390fd5b6000600160008381526020019081526020016000209050600060028111156103fe576103fd610ec3565b5b8160030160149054906101000a900460ff16600281111561042257610421610ec3565b5b14610459576040517fbaf3f0f700000000000000000000000000000000000000000000000000000000815260040160405180910390fd5b60018160030160146101000a81548160ff0219169083600281111561048157610480610ec3565b5b02179055505050565b60008054906101000a900460ff1681565b6000600460009054906101000a900473ffffffffffffffffffffffffffffffffffffffff16905090565b6104ce81610c17565b610504576040517f4db0c48300000000000000000000000000000000000000000000000000000000815260040160405180910390fd5b61050d81610c86565b610543576040517fcce31cc400000000000000000000000000000000000000000000000000000000815260040160405180910390fd5b600060016000838152602001908152602001600020905060028081111561056d5761056c610ec3565b5b8160030160149054906101000a900460ff16600281111561059157610590610ec3565b5b146105c8576040517fbaf3f0f700000000000000000000000000000000000000000000000000000000815260040160405180910390fd5b60008160030160146101000a81548160ff021916908360028111156105f0576105ef610ec3565b5b02179055503481600101819055505050565b61060a610d38565b600160008381526020019081526020016000206040518060a00160405290816000820154815260200160018201548152602001600282015481526020016003820160009054906101000a900473ffffffffffffffffffffffffffffffffffffffff1673ffffffffffffffffffffffffffffffffffffffff1673ffffffffffffffffffffffffffffffffffffffff1681526020016003820160149054906101000a900460ff1660028111156106c1576106c0610ec3565b5b60028111156106d3576106d2610ec3565b5b815250509050919050565b600060026000838152602001908152602001600020549050919050565b61070361049b565b73ffffffffffffffffffffffffffffffffffffffff163373ffffffffffffffffffffffffffffffffffffffff1614610767576040517f5fc483c500000000000000000000000000000000000000000000000000000000815260040160405180910390fd5b60008054906101000a900460ff161561077f57600080fd5b61078881610c17565b6107be576040517f4db0c48300000000000000000000000000000000000000000000000000000000815260040160405180910390fd5b6000600160008381526020019081526020016000209050600060028111156107e9576107e8610ec3565b5b8160030160149054906101000a900460ff16600281111561080d5761080c610ec3565b5b14610844576040517fbaf3f0f700000000000000000000000000000000000000000000000000000000815260040160405180910390fd5b60008160030160009054906101000a900473ffffffffffffffffffffffffffffffffffffffff1673ffffffffffffffffffffffffffffffffffffffff1682600101546040516108929061118c565b60006040518083038185875af1925050503d80600081146108cf576040519150601f19603f3d011682016040523d82523d6000602084013e6108d4565b606091505b5050905080610918576040517f08c379a000000000000000000000000000000000000000000000000000000000815260040161090f906111fe565b60405180910390fd5b60028260030160146101000a81548160ff021916908360028111156109405761093f610ec3565b5b021790555060008260010181905550505050565b6000600354905090565b61096661049b565b73ffffffffffffffffffffffffffffffffffffffff163373ffffffffffffffffffffffffffffffffffffffff16146109ca576040517f5fc483c500000000000000000000000000000000000000000000000000000000815260040160405180910390fd5b60008060006101000a81548160ff021916908315150217905550565b60008054906101000a900460ff16156109fe57600080fd5b60008233604051602001610a13929190611287565b604051602081830303815290604052805190602001209050610a3481610c86565b15610a6b576040517fb0fc2d9700000000000000000000000000000000000000000000000000000000815260040160405180910390fd5b600060036000815480929190610a80906112e2565b9190505590508160026000838152602001908152602001600020819055506040518060a001604052808281526020013481526020018481526020013373ffffffffffffffffffffffffffffffffffffffff16815260200160006002811115610aeb57610aea610ec3565b5b8152506001600084815260200190815260200160002060008201518160000155602082015181600101556040820151816002015560608201518160030160006101000a81548173ffffffffffffffffffffffffffffffffffffffff021916908373ffffffffffffffffffffffffffffffffffffffff16021790555060808201518160030160146101000a81548160ff02191690836002811115610b9157610b90610ec3565b5b021790555090505050505050565b610ba761049b565b73ffffffffffffffffffffffffffffffffffffffff163373ffffffffffffffffffffffffffffffffffffffff1614610c0b576040517f5fc483c500000000000000000000000000000000000000000000000000000000815260040160405180910390fd5b610c1481610cf4565b50565b60008073ffffffffffffffffffffffffffffffffffffffff166001600084815260200190815260200160002060030160009054906101000a900473ffffffffffffffffffffffffffffffffffffffff1673ffffffffffffffffffffffffffffffffffffffff1614159050919050565b60003373ffffffffffffffffffffffffffffffffffffffff166001600084815260200190815260200160002060030160009054906101000a900473ffffffffffffffffffffffffffffffffffffffff1673ffffffffffffffffffffffffffffffffffffffff16149050919050565b80600460006101000a81548173ffffffffffffffffffffffffffffffffffffffff021916908373ffffffffffffffffffffffffffffffffffffffff16021790555050565b6040518060a00160405280600081526020016000815260200160008019168152602001600073ffffffffffffffffffffffffffffffffffffffff16815260200160006002811115610d8c57610d8b610ec3565b5b81525090565b600080fd5b6000819050919050565b610daa81610d97565b8114610db557600080fd5b50565b600081359050610dc781610da1565b92915050565b600060208284031215610de357610de2610d92565b5b6000610df184828501610db8565b91505092915050565b60008115159050919050565b610e0f81610dfa565b82525050565b6000602082019050610e2a6000830184610e06565b92915050565b600073ffffffffffffffffffffffffffffffffffffffff82169050919050565b6000610e5b82610e30565b9050919050565b610e6b81610e50565b82525050565b6000602082019050610e866000830184610e62565b92915050565b6000819050919050565b610e9f81610e8c565b82525050565b610eae81610d97565b82525050565b610ebd81610e50565b82525050565b7f4e487b7100000000000000000000000000000000000000000000000000000000600052602160045260246000fd5b60038110610f0357610f02610ec3565b5b50565b6000819050610f1482610ef2565b919050565b6000610f2482610f06565b9050919050565b610f3481610f19565b82525050565b60a082016000820151610f506000850182610e96565b506020820151610f636020850182610e96565b506040820151610f766040850182610ea5565b506060820151610f896060850182610eb4565b506080820151610f9c6080850182610f2b565b50505050565b600060a082019050610fb76000830184610f3a565b92915050565b610fc681610e8c565b8114610fd157600080fd5b50565b600081359050610fe381610fbd565b92915050565b600060208284031215610fff57610ffe610d92565b5b600061100d84828501610fd4565b91505092915050565b61101f81610d97565b82525050565b600060208201905061103a6000830184611016565b92915050565b61104981610e8c565b82525050565b60006020820190506110646000830184611040565b92915050565b60007fffffffffffffffffffffffffffffffff0000000000000000000000000000000082169050919050565b61109f8161106a565b81146110aa57600080fd5b50565b6000813590506110bc81611096565b92915050565b600080604083850312156110d9576110d8610d92565b5b60006110e7858286016110ad565b92505060206110f885828601610db8565b9150509250929050565b61110b81610e50565b811461111657600080fd5b50565b60008135905061112881611102565b92915050565b60006020828403121561114457611143610d92565b5b600061115284828501611119565b91505092915050565b600081905092915050565b50565b600061117660008361115b565b915061118182611166565b600082019050919050565b600061119782611169565b9150819050919050565b600082825260208201905092915050565b7f5472616e73666572206661696c65642100000000000000000000000000000000600082015250565b60006111e86010836111a1565b91506111f3826111b2565b602082019050919050565b60006020820190508181036000830152611217816111db565b9050919050565b6000819050919050565b6112396112348261106a565b61121e565b82525050565b60008160601b9050919050565b60006112578261123f565b9050919050565b60006112698261124c565b9050919050565b61128161127c82610e50565b61125e565b82525050565b60006112938285611228565b6010820191506112a38284611270565b6014820191508190509392505050565b7f4e487b7100000000000000000000000000000000000000000000000000000000600052601160045260246000fd5b60006112ed82610e8c565b91507fffffffffffffffffffffffffffffffffffffffffffffffffffffffffffffffff820361131f5761131e6112b3565b5b60018201905091905056fea2646970667358221220d17940e92a13ae8cd481938feeb8b234741f68ef81fb2889dec1f90d7eaf10c664736f6c634300080d0033",
  "immutableReferences": {},
  "source": "// SPDX-License-Identifier: MIT\r\npragma solidity >=0.4.22 <0.9.0;\r\n\r\n\r\ncontract CourseMarketplace {\r\n  enum State {\r\n    Purchased,\r\n    Activated,\r\n    Deactivated\r\n  }\r\n  struct Course {\r\n    uint id; // 32\r\n    uint price; // 32\r\n    bytes32 proof; // 32\r\n    address owner; // 20\r\n    State state; // 1\r\n  }\r\n\r\n  bool public isStopped = false;\r\n \r\n  // mapping of courseHash to Course data\r\n  mapping(bytes32 => Course) private ownedCourses;\r\n \r\n  // mapping of courseID to courseHash  \r\n  mapping(uint => bytes32) private ownedCourseHash;\r\n\r\n  // number of all courses + id of the course\r\n  uint private totalOwnedCourses;\r\n\r\n  address payable private owner;\r\n  \r\n  constructor() {\r\n    setContractOwner(msg.sender);\r\n  }\r\n\r\n    /// Course has invalid state!\r\n  error InvalidState();\r\n\r\n  /// Course is not created!\r\n  error CourseIsNotCreated();\r\n\r\n  /// Course has already a Owner!\r\n  error CourseHasOwner();\r\n\r\n    /// Sender is not course owner!\r\n  error SenderIsNotCourseOwner();\r\n\r\n  /// Only owner has an access!\r\n  error OnlyOwner();\r\n\r\n  modifier onlyOwner() {\r\n    if (msg.sender != getContractOwner()) {\r\n      revert OnlyOwner();\r\n    }\r\n    _;\r\n  }\r\n\r\n   modifier onlyWhenNotStopped {\r\n    require(!isStopped);\r\n    _;\r\n  }\r\n\r\n  function stopContract()\r\n    external\r\n    onlyOwner\r\n  {\r\n    isStopped = true;\r\n  }\r\n\r\n  function resumeContract()\r\n    external\r\n    onlyOwner\r\n  {\r\n    isStopped = false;\r\n  }\r\n\r\n  function purchaseCourse(\r\n    bytes16 courseId, // 0x00000000000000000000000000003130\r\n    bytes32 proof // 0x0000000000000000000000000000313000000000000000000000000000003130\r\n  )\r\n    external\r\n    payable\r\n    onlyWhenNotStopped\r\n  {\r\n    bytes32 courseHash = keccak256(abi.encodePacked(courseId, msg.sender));\r\n    if (hasCourseOwnership(courseHash)) {\r\n      revert CourseHasOwner();\r\n    }\r\n    uint id = totalOwnedCourses++;\r\n    ownedCourseHash[id] = courseHash;\r\n    ownedCourses[courseHash] = Course({\r\n      id: id,\r\n      price: msg.value,\r\n      proof: proof,\r\n      owner: msg.sender,\r\n      state: State.Purchased\r\n    });\r\n  }\r\n\r\n    function repurchaseCourse(bytes32 courseHash)\r\n    external\r\n    payable\r\n  {\r\n    if (!isCourseCreated(courseHash)) {\r\n      revert CourseIsNotCreated();\r\n    }\r\n\r\n    if (!hasCourseOwnership(courseHash)) {\r\n      revert SenderIsNotCourseOwner();\r\n    }\r\n\r\n    Course storage course = ownedCourses[courseHash];\r\n\r\n    if (course.state != State.Deactivated) {\r\n      revert InvalidState();\r\n    }\r\n\r\n    course.state = State.Purchased;\r\n    course.price = msg.value;\r\n  }\r\n\r\n   function activateCourse(bytes32 courseHash)\r\n    external\r\n    onlyOwner\r\n    onlyWhenNotStopped\r\n  {\r\n    if (!isCourseCreated(courseHash)) {\r\n      revert CourseIsNotCreated();\r\n    }\r\n\r\n    Course storage course = ownedCourses[courseHash];\r\n\r\n    if (course.state != State.Purchased) {\r\n      revert InvalidState();\r\n    }\r\n    course.state = State.Activated;\r\n  }\r\n\r\n  function deactivateCourse(bytes32 courseHash)\r\n    external\r\n    onlyOwner\r\n    onlyWhenNotStopped\r\n  {\r\n    if (!isCourseCreated(courseHash)) {\r\n      revert CourseIsNotCreated();\r\n    }\r\n\r\n    Course storage course = ownedCourses[courseHash];\r\n\r\n    if (course.state != State.Purchased) {\r\n      revert InvalidState();\r\n    }\r\n\r\n    (bool success, ) = course.owner.call{value: course.price}(\"\");\r\n    require(success, \"Transfer failed!\");\r\n\r\n    course.state = State.Deactivated;\r\n    course.price = 0;\r\n  }\r\n\r\n  function transferOwnership(address newOwner)\r\n    external\r\n    onlyOwner\r\n  {\r\n    setContractOwner(newOwner);\r\n  }\r\n\r\n  function getCourseCount()\r\n    external\r\n    view\r\n    returns (uint)\r\n  {\r\n    return totalOwnedCourses;\r\n  }\r\n  function getCourseHashAtIndex(uint index)\r\n    external\r\n    view\r\n    returns (bytes32)\r\n  {\r\n    return ownedCourseHash[index];\r\n  }\r\n  function getCourseByHash(bytes32 courseHash)\r\n    external\r\n    view\r\n    returns (Course memory)\r\n  {\r\n    return ownedCourses[courseHash];\r\n  }\r\n\r\n  function getContractOwner()\r\n    public\r\n    view\r\n    returns (address)\r\n  {\r\n    return owner;\r\n  }\r\n\r\n  function setContractOwner(address newOwner) private {\r\n    owner = payable(newOwner);\r\n  }\r\n\r\n    function isCourseCreated(bytes32 courseHash)\r\n    private\r\n    view\r\n    returns (bool)\r\n  {\r\n    return ownedCourses[courseHash].owner != 0x0000000000000000000000000000000000000000;\r\n  }\r\n\r\n    function hasCourseOwnership(bytes32 courseHash)\r\n    private\r\n    view\r\n    returns (bool)\r\n  {\r\n    return ownedCourses[courseHash].owner == msg.sender;\r\n  }\r\n}",
  "sourcePath": "C:\\Users\\korat\\OneDrive\\Desktop\\projects\\marketplace-eth\\contracts\\CourseMarketplace.sol",
  "compiler": {
    "name": "solc",
    "version": "0.8.13+commit.abaa5c0e.Emscripten.clang"
  },
  "schemaVersion": "3.4.16",
  "updatedAt": "2024-01-28T16:58:53.180Z",
  "networkType": "ethereum",
  "devdoc": {
    "kind": "dev",
    "methods": {},
    "version": 1
  },
  "userdoc": {
    "errors": {
      "CourseHasOwner()": [
        {
          "notice": "Course has already a Owner!"
        }
      ],
      "CourseIsNotCreated()": [
        {
          "notice": "Course is not created!"
        }
      ],
      "InvalidState()": [
        {
          "notice": "Course has invalid state!"
        }
      ],
      "OnlyOwner()": [
        {
          "notice": "Only owner has an access!"
        }
      ],
      "SenderIsNotCourseOwner()": [
        {
          "notice": "Sender is not course owner!"
        }
      ]
    },
    "kind": "user",
    "methods": {},
    "version": 1
  }
}